{
  "_format": "hh-sol-artifact-1",
  "contractName": "PiggyFactory",
  "sourceName": "contracts/PiggyFactory.sol",
  "abi": [
    {
      "inputs": [],
      "stateMutability": "nonpayable",
      "type": "constructor"
    },
    {
      "inputs": [],
      "name": "youHaveFailed",
      "type": "error"
    },
    {
      "inputs": [
        {
          "internalType": "bytes",
          "name": "_bytecode",
          "type": "bytes"
        }
      ],
      "name": "createPiggy",
      "outputs": [
        {
          "internalType": "address",
          "name": "",
          "type": "address"
        }
      ],
      "stateMutability": "nonpayable",
      "type": "function"
    },
    {
      "inputs": [
        {
          "internalType": "address",
          "name": "",
          "type": "address"
        },
        {
          "internalType": "uint256",
          "name": "",
          "type": "uint256"
        }
      ],
      "name": "deployedContracts",
      "outputs": [
        {
          "internalType": "address",
          "name": "",
          "type": "address"
        }
      ],
      "stateMutability": "view",
      "type": "function"
    },
    {
      "inputs": [],
      "name": "developerAddress",
      "outputs": [
        {
          "internalType": "address",
          "name": "",
          "type": "address"
        }
      ],
      "stateMutability": "view",
      "type": "function"
    },
    {
      "inputs": [
        {
          "internalType": "string",
          "name": "_savingPurpose",
          "type": "string"
        },
        {
          "internalType": "uint256",
          "name": "_endTime",
          "type": "uint256"
        }
      ],
      "name": "getPiggyByteCode",
      "outputs": [
        {
          "internalType": "bytes",
          "name": "",
          "type": "bytes"
        }
      ],
      "stateMutability": "view",
      "type": "function"
    },
    {
      "inputs": [
        {
          "internalType": "address",
          "name": "user",
          "type": "address"
        }
      ],
      "name": "getUserDeployedContracts",
      "outputs": [
        {
          "internalType": "address[]",
          "name": "",
          "type": "address[]"
        }
      ],
      "stateMutability": "view",
      "type": "function"
    },
    {
      "inputs": [],
      "name": "piggyCount",
      "outputs": [
        {
          "internalType": "uint256",
          "name": "",
          "type": "uint256"
        }
      ],
      "stateMutability": "view",
      "type": "function"
    }
  ],
  "bytecode": "0x6080604052348015600f57600080fd5b50336000806101000a81548173ffffffffffffffffffffffffffffffffffffffff021916908373ffffffffffffffffffffffffffffffffffffffff1602179055506128238061005f6000396000f3fe608060405234801561001057600080fd5b50600436106100625760003560e01c806345967555146100675780634dec35d9146100975780635f7ad973146100c7578063b747b80a146100e5578063caccd7f714610115578063d57cf60314610133575b600080fd5b610081600480360381019061007c9190610501565b610163565b60405161008e9190610550565b60405180910390f35b6100b160048036038101906100ac91906106b1565b6101b1565b6040516100be919061078c565b60405180910390f35b6100cf61024b565b6040516100dc91906107bd565b60405180910390f35b6100ff60048036038101906100fa91906107d8565b610251565b60405161010c91906108c3565b60405180910390f35b61011d61031e565b60405161012a9190610550565b60405180910390f35b61014d60048036038101906101489190610986565b610342565b60405161015a9190610550565b60405180910390f35b6002602052816000526040600020818154811061017f57600080fd5b906000526020600020016000915091509054906101000a900473ffffffffffffffffffffffffffffffffffffffff1681565b60606000604051806020016101c59061044c565b6020820181038252601f19601f8201166040525090508084843360008054906101000a900473ffffffffffffffffffffffffffffffffffffffff166040516020016102139493929190610a24565b604051602081830303815290604052604051602001610233929190610aac565b60405160208183030381529060405291505092915050565b60015481565b6060600260008373ffffffffffffffffffffffffffffffffffffffff1673ffffffffffffffffffffffffffffffffffffffff16815260200190815260200160002080548060200260200160405190810160405280929190818152602001828054801561031257602002820191906000526020600020905b8160009054906101000a900473ffffffffffffffffffffffffffffffffffffffff1673ffffffffffffffffffffffffffffffffffffffff16815260200190600101908083116102c8575b50505050509050919050565b60008054906101000a900473ffffffffffffffffffffffffffffffffffffffff1681565b6000803360015460405160200161035a929190610b39565b6040516020818303038152906040528051906020012090506001600081548092919061038590610b94565b91905055506000818451602086016000f59050806103a257600080fd5b600260003373ffffffffffffffffffffffffffffffffffffffff1673ffffffffffffffffffffffffffffffffffffffff168152602001908152602001600020819080600181540180825580915050600190039060005260206000200160009091909190916101000a81548173ffffffffffffffffffffffffffffffffffffffff021916908373ffffffffffffffffffffffffffffffffffffffff1602179055508092505050919050565b611c1180610bdd83390190565b6000604051905090565b600080fd5b600080fd5b600073ffffffffffffffffffffffffffffffffffffffff82169050919050565b60006104988261046d565b9050919050565b6104a88161048d565b81146104b357600080fd5b50565b6000813590506104c58161049f565b92915050565b6000819050919050565b6104de816104cb565b81146104e957600080fd5b50565b6000813590506104fb816104d5565b92915050565b6000806040838503121561051857610517610463565b5b6000610526858286016104b6565b9250506020610537858286016104ec565b9150509250929050565b61054a8161048d565b82525050565b60006020820190506105656000830184610541565b92915050565b600080fd5b600080fd5b6000601f19601f8301169050919050565b7f4e487b7100000000000000000000000000000000000000000000000000000000600052604160045260246000fd5b6105be82610575565b810181811067ffffffffffffffff821117156105dd576105dc610586565b5b80604052505050565b60006105f0610459565b90506105fc82826105b5565b919050565b600067ffffffffffffffff82111561061c5761061b610586565b5b61062582610575565b9050602081019050919050565b82818337600083830152505050565b600061065461064f84610601565b6105e6565b9050828152602081018484840111156106705761066f610570565b5b61067b848285610632565b509392505050565b600082601f8301126106985761069761056b565b5b81356106a8848260208601610641565b91505092915050565b600080604083850312156106c8576106c7610463565b5b600083013567ffffffffffffffff8111156106e6576106e5610468565b5b6106f285828601610683565b9250506020610703858286016104ec565b9150509250929050565b600081519050919050565b600082825260208201905092915050565b60005b8381101561074757808201518184015260208101905061072c565b60008484015250505050565b600061075e8261070d565b6107688185610718565b9350610778818560208601610729565b61078181610575565b840191505092915050565b600060208201905081810360008301526107a68184610753565b905092915050565b6107b7816104cb565b82525050565b60006020820190506107d260008301846107ae565b92915050565b6000602082840312156107ee576107ed610463565b5b60006107fc848285016104b6565b91505092915050565b600081519050919050565b600082825260208201905092915050565b6000819050602082019050919050565b61083a8161048d565b82525050565b600061084c8383610831565b60208301905092915050565b6000602082019050919050565b600061087082610805565b61087a8185610810565b935061088583610821565b8060005b838110156108b657815161089d8882610840565b97506108a883610858565b925050600181019050610889565b5085935050505092915050565b600060208201905081810360008301526108dd8184610865565b905092915050565b600067ffffffffffffffff821115610900576108ff610586565b5b61090982610575565b9050602081019050919050565b6000610929610924846108e5565b6105e6565b90508281526020810184848401111561094557610944610570565b5b610950848285610632565b509392505050565b600082601f83011261096d5761096c61056b565b5b813561097d848260208601610916565b91505092915050565b60006020828403121561099c5761099b610463565b5b600082013567ffffffffffffffff8111156109ba576109b9610468565b5b6109c684828501610958565b91505092915050565b600081519050919050565b600082825260208201905092915050565b60006109f6826109cf565b610a0081856109da565b9350610a10818560208601610729565b610a1981610575565b840191505092915050565b60006080820190508181036000830152610a3e81876109eb565b9050610a4d60208301866107ae565b610a5a6040830185610541565b610a676060830184610541565b95945050505050565b600081905092915050565b6000610a868261070d565b610a908185610a70565b9350610aa0818560208601610729565b80840191505092915050565b6000610ab88285610a7b565b9150610ac48284610a7b565b91508190509392505050565b60008160601b9050919050565b6000610ae882610ad0565b9050919050565b6000610afa82610add565b9050919050565b610b12610b0d8261048d565b610aef565b82525050565b6000819050919050565b610b33610b2e826104cb565b610b18565b82525050565b6000610b458285610b01565b601482019150610b558284610b22565b6020820191508190509392505050565b7f4e487b7100000000000000000000000000000000000000000000000000000000600052601160045260246000fd5b6000610b9f826104cb565b91507fffffffffffffffffffffffffffffffffffffffffffffffffffffffffffffffff8203610bd157610bd0610b65565b5b60018201905091905056fe608060405234801561001057600080fd5b50604051611c11380380611c118339818101604052810190610032919061058e565b4260015411610076576040517f08c379a000000000000000000000000000000000000000000000000000000000815260040161006d90610694565b60405180910390fd5b836000908161008591906108cb565b50824261009291906109cc565b60018190555081600360006101000a81548173ffffffffffffffffffffffffffffffffffffffff021916908373ffffffffffffffffffffffffffffffffffffffff16021790555080600260006101000a81548173ffffffffffffffffffffffffffffffffffffffff021916908373ffffffffffffffffffffffffffffffffffffffff1602179055506040518060400160405280736b175474e89094c44da98b954eedeac495271d0f73ffffffffffffffffffffffffffffffffffffffff16815260200160008152506004600080600281111561017157610170610a00565b5b600281111561018357610182610a00565b5b815260200190815260200160002060008201518160000160006101000a81548173ffffffffffffffffffffffffffffffffffffffff021916908373ffffffffffffffffffffffffffffffffffffffff16021790555060208201518160010155905050604051806040016040528073a0b86991c6218b36c1d19d4a2e9eb0ce3606eb4873ffffffffffffffffffffffffffffffffffffffff1681526020016000815250600460006001600281111561023d5761023c610a00565b5b600281111561024f5761024e610a00565b5b815260200190815260200160002060008201518160000160006101000a81548173ffffffffffffffffffffffffffffffffffffffff021916908373ffffffffffffffffffffffffffffffffffffffff16021790555060208201518160010155905050604051806040016040528073dac17f958d2ee523a2206206994597c13d831ec773ffffffffffffffffffffffffffffffffffffffff16815260200160008152506004600060028081111561030857610307610a00565b5b600281111561031a57610319610a00565b5b815260200190815260200160002060008201518160000160006101000a81548173ffffffffffffffffffffffffffffffffffffffff021916908373ffffffffffffffffffffffffffffffffffffffff1602179055506020820151816001015590505050505050610a2f565b6000604051905090565b600080fd5b600080fd5b600080fd5b600080fd5b6000601f19601f8301169050919050565b7f4e487b7100000000000000000000000000000000000000000000000000000000600052604160045260246000fd5b6103ec826103a3565b810181811067ffffffffffffffff8211171561040b5761040a6103b4565b5b80604052505050565b600061041e610385565b905061042a82826103e3565b919050565b600067ffffffffffffffff82111561044a576104496103b4565b5b610453826103a3565b9050602081019050919050565b60005b8381101561047e578082015181840152602081019050610463565b60008484015250505050565b600061049d6104988461042f565b610414565b9050828152602081018484840111156104b9576104b861039e565b5b6104c4848285610460565b509392505050565b600082601f8301126104e1576104e0610399565b5b81516104f184826020860161048a565b91505092915050565b6000819050919050565b61050d816104fa565b811461051857600080fd5b50565b60008151905061052a81610504565b92915050565b600073ffffffffffffffffffffffffffffffffffffffff82169050919050565b600061055b82610530565b9050919050565b61056b81610550565b811461057657600080fd5b50565b60008151905061058881610562565b92915050565b600080600080608085870312156105a8576105a761038f565b5b600085015167ffffffffffffffff8111156105c6576105c5610394565b5b6105d2878288016104cc565b94505060206105e38782880161051b565b93505060406105f487828801610579565b925050606061060587828801610579565b91505092959194509250565b600082825260208201905092915050565b7f556e6c6f636b2074696d65206d75737420626520696e2074686520667574757260008201527f6500000000000000000000000000000000000000000000000000000000000000602082015250565b600061067e602183610611565b915061068982610622565b604082019050919050565b600060208201905081810360008301526106ad81610671565b9050919050565b600081519050919050565b7f4e487b7100000000000000000000000000000000000000000000000000000000600052602260045260246000fd5b6000600282049050600182168061070657607f821691505b602082108103610719576107186106bf565b5b50919050565b60008190508160005260206000209050919050565b60006020601f8301049050919050565b600082821b905092915050565b6000600883026107817fffffffffffffffffffffffffffffffffffffffffffffffffffffffffffffffff82610744565b61078b8683610744565b95508019841693508086168417925050509392505050565b6000819050919050565b60006107c86107c36107be846104fa565b6107a3565b6104fa565b9050919050565b6000819050919050565b6107e2836107ad565b6107f66107ee826107cf565b848454610751565b825550505050565b600090565b61080b6107fe565b6108168184846107d9565b505050565b5b8181101561083a5761082f600082610803565b60018101905061081c565b5050565b601f82111561087f576108508161071f565b61085984610734565b81016020851015610868578190505b61087c61087485610734565b83018261081b565b50505b505050565b600082821c905092915050565b60006108a260001984600802610884565b1980831691505092915050565b60006108bb8383610891565b9150826002028217905092915050565b6108d4826106b4565b67ffffffffffffffff8111156108ed576108ec6103b4565b5b6108f782546106ee565b61090282828561083e565b600060209050601f8311600181146109355760008415610923578287015190505b61092d85826108af565b865550610995565b601f1984166109438661071f565b60005b8281101561096b57848901518255600182019150602085019450602081019050610946565b868310156109885784890151610984601f891682610891565b8355505b6001600288020188555050505b505050505050565b7f4e487b7100000000000000000000000000000000000000000000000000000000600052601160045260246000fd5b60006109d7826104fa565b91506109e2836104fa565b92508282019050808211156109fa576109f961099d565b5b92915050565b7f4e487b7100000000000000000000000000000000000000000000000000000000600052602160045260246000fd5b6111d380610a3e6000396000f3fe608060405234801561001057600080fd5b50600436106100575760003560e01c806370dc20391461005c578063870b181c1461008d578063c6ab5d90146100a9578063e3a12480146100c5578063ed4ec054146100f5575b600080fd5b61007660048036038101906100719190610d1c565b610111565b604051610084929190610da3565b60405180910390f35b6100a760048036038101906100a29190610d1c565b610155565b005b6100c360048036038101906100be9190610d1c565b6104bc565b005b6100df60048036038101906100da9190610d1c565b6108c4565b6040516100ec9190610dcc565b60405180910390f35b61010f600480360381019061010a9190610e13565b61090d565b005b60046020528060005260406000206000915090508060000160009054906101000a900473ffffffffffffffffffffffffffffffffffffffff16908060010154905082565b3373ffffffffffffffffffffffffffffffffffffffff16600360009054906101000a900473ffffffffffffffffffffffffffffffffffffffff1673ffffffffffffffffffffffffffffffffffffffff16146101e5576040517f08c379a00000000000000000000000000000000000000000000000000000000081526004016101dc90610eb0565b60405180910390fd5b60001515600360149054906101000a900460ff1615151461023b576040517f08c379a000000000000000000000000000000000000000000000000000000000815260040161023290610f1c565b60405180910390fd5b6001544210156104b95760006004600083600281111561025e5761025d610f3c565b5b60028111156102705761026f610f3c565b5b815260200190815260200160002060000160009054906101000a900473ffffffffffffffffffffffffffffffffffffffff1690506000600460008460028111156102bd576102bc610f3c565b5b60028111156102cf576102ce610f3c565b5b815260200190815260200160002060010154905060006102ee82610cd0565b9050600081836102fe9190610f9a565b905060006004600087600281111561031957610318610f3c565b5b600281111561032b5761032a610f3c565b5b8152602001908152602001600020600101819055508373ffffffffffffffffffffffffffffffffffffffff1663a9059cbb33836040518363ffffffff1660e01b815260040161037b929190610da3565b6020604051808303816000875af115801561039a573d6000803e3d6000fd5b505050506040513d601f19601f820116820180604052508101906103be9190611006565b508373ffffffffffffffffffffffffffffffffffffffff1663a9059cbb600260009054906101000a900473ffffffffffffffffffffffffffffffffffffffff16846040518363ffffffff1660e01b815260040161041c929190610da3565b6020604051808303816000875af115801561043b573d6000803e3d6000fd5b505050506040513d601f19601f8201168201806040525081019061045f9190611006565b506001600360146101000a81548160ff0219169083151502179055507f7084f5476618d8e60b11ef0d7d3f06914655adb8793e28ff7f018d4c76d505d533826040516104ac929190610da3565b60405180910390a1505050505b50565b3373ffffffffffffffffffffffffffffffffffffffff16600360009054906101000a900473ffffffffffffffffffffffffffffffffffffffff1673ffffffffffffffffffffffffffffffffffffffff161461054c576040517f08c379a000000000000000000000000000000000000000000000000000000000815260040161054390610eb0565b60405180910390fd5b60001515600360149054906101000a900460ff161515146105a2576040517f08c379a000000000000000000000000000000000000000000000000000000000815260040161059990610f1c565b60405180910390fd5b6000600460008360028111156105bb576105ba610f3c565b5b60028111156105cd576105cc610f3c565b5b815260200190815260200160002060000160009054906101000a900473ffffffffffffffffffffffffffffffffffffffff16905060006004600084600281111561061a57610619610f3c565b5b600281111561062c5761062b610f3c565b5b815260200190815260200160002060010154905042600154101561067c576040517fd4d4d26b00000000000000000000000000000000000000000000000000000000815260040160405180910390fd5b600081036106b6576040517ff4d678b800000000000000000000000000000000000000000000000000000000815260040160405180910390fd5b60008273ffffffffffffffffffffffffffffffffffffffff166370a08231306040518263ffffffff1660e01b81526004016106f19190611033565b602060405180830381865afa15801561070e573d6000803e3d6000fd5b505050506040513d601f19601f820116820180604052508101906107329190611063565b03610769576040517f0d4a8ce000000000000000000000000000000000000000000000000000000000815260040160405180910390fd5b60008273ffffffffffffffffffffffffffffffffffffffff166370a08231306040518263ffffffff1660e01b81526004016107a49190611033565b602060405180830381865afa1580156107c1573d6000803e3d6000fd5b505050506040513d601f19601f820116820180604052508101906107e59190611063565b9050600091506001600360146101000a81548160ff0219169083151502179055508273ffffffffffffffffffffffffffffffffffffffff1663a9059cbb33836040518363ffffffff1660e01b8152600401610841929190610da3565b6020604051808303816000875af1158015610860573d6000803e3d6000fd5b505050506040513d601f19601f820116820180604052508101906108849190611006565b507f7084f5476618d8e60b11ef0d7d3f06914655adb8793e28ff7f018d4c76d505d533826040516108b6929190610da3565b60405180910390a150505050565b600080600460008460028111156108de576108dd610f3c565b5b60028111156108f0576108ef610f3c565b5b815260200190815260200160002060010154905080915050919050565b60001515600360149054906101000a900460ff16151514610963576040517f08c379a000000000000000000000000000000000000000000000000000000000815260040161095a90610f1c565b60405180910390fd5b60006004600084600281111561097c5761097b610f3c565b5b600281111561098e5761098d610f3c565b5b815260200190815260200160002060000160009054906101000a900473ffffffffffffffffffffffffffffffffffffffff169050600073ffffffffffffffffffffffffffffffffffffffff16600460008560028111156109f1576109f0610f3c565b5b6002811115610a0357610a02610f3c565b5b815260200190815260200160002060000160009054906101000a900473ffffffffffffffffffffffffffffffffffffffff1673ffffffffffffffffffffffffffffffffffffffff1603610a82576040517fc1ab6dc100000000000000000000000000000000000000000000000000000000815260040160405180910390fd5b60008203610abc576040517f912e42da00000000000000000000000000000000000000000000000000000000815260040160405180910390fd5b600154421115610af8576040517f67a095e200000000000000000000000000000000000000000000000000000000815260040160405180910390fd5b818173ffffffffffffffffffffffffffffffffffffffff166370a08231336040518263ffffffff1660e01b8152600401610b329190611033565b602060405180830381865afa158015610b4f573d6000803e3d6000fd5b505050506040513d601f19601f82011682018060405250810190610b739190611063565b1015610bab576040517f356680b700000000000000000000000000000000000000000000000000000000815260040160405180910390fd5b8073ffffffffffffffffffffffffffffffffffffffff166323b872dd3330856040518463ffffffff1660e01b8152600401610be893929190611090565b6020604051808303816000875af1158015610c07573d6000803e3d6000fd5b505050506040513d601f19601f82011682018060405250810190610c2b9190611006565b508160046000856002811115610c4457610c43610f3c565b5b6002811115610c5657610c55610f3c565b5b81526020019081526020016000206001016000828254610c7691906110c7565b925050819055503073ffffffffffffffffffffffffffffffffffffffff167f5a3e025ad8b0ffc3940134b57218ebd90cfa0ed8a0ec0fdd53be572c480cf2cd83604051610cc39190610dcc565b60405180910390a2505050565b60006064600f83610ce191906110fb565b610ceb919061116c565b9050919050565b600080fd5b60038110610d0457600080fd5b50565b600081359050610d1681610cf7565b92915050565b600060208284031215610d3257610d31610cf2565b5b6000610d4084828501610d07565b91505092915050565b600073ffffffffffffffffffffffffffffffffffffffff82169050919050565b6000610d7482610d49565b9050919050565b610d8481610d69565b82525050565b6000819050919050565b610d9d81610d8a565b82525050565b6000604082019050610db86000830185610d7b565b610dc56020830184610d94565b9392505050565b6000602082019050610de16000830184610d94565b92915050565b610df081610d8a565b8114610dfb57600080fd5b50565b600081359050610e0d81610de7565b92915050565b60008060408385031215610e2a57610e29610cf2565b5b6000610e3885828601610d07565b9250506020610e4985828601610dfe565b9150509250929050565b600082825260208201905092915050565b7f4f6e6c79204f776e65722063616e205769746864726177000000000000000000600082015250565b6000610e9a601783610e53565b9150610ea582610e64565b602082019050919050565b60006020820190508181036000830152610ec981610e8d565b9050919050565b7f416c72656164792077697468647261776e000000000000000000000000000000600082015250565b6000610f06601183610e53565b9150610f1182610ed0565b602082019050919050565b60006020820190508181036000830152610f3581610ef9565b9050919050565b7f4e487b7100000000000000000000000000000000000000000000000000000000600052602160045260246000fd5b7f4e487b7100000000000000000000000000000000000000000000000000000000600052601160045260246000fd5b6000610fa582610d8a565b9150610fb083610d8a565b9250828203905081811115610fc857610fc7610f6b565b5b92915050565b60008115159050919050565b610fe381610fce565b8114610fee57600080fd5b50565b60008151905061100081610fda565b92915050565b60006020828403121561101c5761101b610cf2565b5b600061102a84828501610ff1565b91505092915050565b60006020820190506110486000830184610d7b565b92915050565b60008151905061105d81610de7565b92915050565b60006020828403121561107957611078610cf2565b5b60006110878482850161104e565b91505092915050565b60006060820190506110a56000830186610d7b565b6110b26020830185610d7b565b6110bf6040830184610d94565b949350505050565b60006110d282610d8a565b91506110dd83610d8a565b92508282019050808211156110f5576110f4610f6b565b5b92915050565b600061110682610d8a565b915061111183610d8a565b925082820261111f81610d8a565b9150828204841483151761113657611135610f6b565b5b5092915050565b7f4e487b7100000000000000000000000000000000000000000000000000000000600052601260045260246000fd5b600061117782610d8a565b915061118283610d8a565b9250826111925761119161113d565b5b82820490509291505056fea2646970667358221220ee553c31744d18e282e75c745a53ffc22db7c6f50da9e43bb9cdc8ca2284e93064736f6c634300081c0033a2646970667358221220f055aa24a9380fd59ce2ce33d65a2ab65b8715171eb49c906b61a2fc3025188464736f6c634300081c0033",
  "linkReferences": {},
  "deployedLinkReferences": {}
}